{
  "_format": "hh-sol-artifact-1",
  "contractName": "iAIPool1",
  "sourceName": "contracts/iAIPool1.sol",
  "abi": [
    {
      "inputs": [
        {
          "internalType": "address",
          "name": "iAITokenAddress",
          "type": "address"
        },
        {
          "internalType": "address",
          "name": "nftTokenAddress",
          "type": "address"
        }
      ],
      "stateMutability": "nonpayable",
      "type": "constructor"
    },
    {
      "anonymous": false,
      "inputs": [
        {
          "indexed": true,
          "internalType": "address",
          "name": "previousOwner",
          "type": "address"
        },
        {
          "indexed": true,
          "internalType": "address",
          "name": "newOwner",
          "type": "address"
        }
      ],
      "name": "OwnershipTransferred",
      "type": "event"
    },
    {
      "anonymous": false,
      "inputs": [
        {
          "indexed": true,
          "internalType": "address",
          "name": "to",
          "type": "address"
        },
        {
          "indexed": false,
          "internalType": "uint256",
          "name": "amount",
          "type": "uint256"
        }
      ],
      "name": "Penalty",
      "type": "event"
    },
    {
      "anonymous": false,
      "inputs": [
        {
          "indexed": true,
          "internalType": "address",
          "name": "from",
          "type": "address"
        },
        {
          "indexed": false,
          "internalType": "uint256",
          "name": "amount",
          "type": "uint256"
        }
      ],
      "name": "Pooled",
      "type": "event"
    },
    {
      "anonymous": false,
      "inputs": [
        {
          "indexed": false,
          "internalType": "address",
          "name": "",
          "type": "address"
        },
        {
          "indexed": false,
          "internalType": "uint256",
          "name": "",
          "type": "uint256"
        }
      ],
      "name": "Received",
      "type": "event"
    },
    {
      "anonymous": false,
      "inputs": [
        {
          "indexed": true,
          "internalType": "address",
          "name": "to",
          "type": "address"
        },
        {
          "indexed": false,
          "internalType": "uint256",
          "name": "amount",
          "type": "uint256"
        }
      ],
      "name": "RewardClaimed",
      "type": "event"
    },
    {
      "anonymous": false,
      "inputs": [
        {
          "indexed": true,
          "internalType": "address",
          "name": "to",
          "type": "address"
        },
        {
          "indexed": false,
          "internalType": "uint256",
          "name": "amount",
          "type": "uint256"
        },
        {
          "indexed": false,
          "internalType": "uint256",
          "name": "poolPeriod",
          "type": "uint256"
        }
      ],
      "name": "Unpooled",
      "type": "event"
    },
    {
      "inputs": [
        {
          "internalType": "address",
          "name": "_staker",
          "type": "address"
        }
      ],
      "name": "allPooled",
      "outputs": [
        {
          "components": [
            {
              "internalType": "uint256",
              "name": "amount",
              "type": "uint256"
            },
            {
              "internalType": "uint256",
              "name": "apr",
              "type": "uint256"
            },
            {
              "internalType": "uint256",
              "name": "timestamp",
              "type": "uint256"
            },
            {
              "internalType": "string",
              "name": "poolType",
              "type": "string"
            }
          ],
          "internalType": "struct IPool.Pool[]",
          "name": "",
          "type": "tuple[]"
        }
      ],
      "stateMutability": "view",
      "type": "function"
    },
    {
      "inputs": [],
      "name": "apr",
      "outputs": [
        {
          "internalType": "uint256",
          "name": "",
          "type": "uint256"
        }
      ],
      "stateMutability": "view",
      "type": "function"
    },
    {
      "inputs": [],
      "name": "claimRewardPool1",
      "outputs": [],
      "stateMutability": "nonpayable",
      "type": "function"
    },
    {
      "inputs": [
        {
          "internalType": "address",
          "name": "_address",
          "type": "address"
        }
      ],
      "name": "getUserTokens",
      "outputs": [
        {
          "internalType": "uint256[]",
          "name": "",
          "type": "uint256[]"
        }
      ],
      "stateMutability": "view",
      "type": "function"
    },
    {
      "inputs": [],
      "name": "iAI",
      "outputs": [
        {
          "internalType": "contract IiAI",
          "name": "",
          "type": "address"
        }
      ],
      "stateMutability": "view",
      "type": "function"
    },
    {
      "inputs": [
        {
          "internalType": "address",
          "name": "_staker",
          "type": "address"
        }
      ],
      "name": "lastclaimtime",
      "outputs": [
        {
          "internalType": "uint256",
          "name": "",
          "type": "uint256"
        }
      ],
      "stateMutability": "view",
      "type": "function"
    },
    {
      "inputs": [],
      "name": "minPoolPeriod",
      "outputs": [
        {
          "internalType": "uint256",
          "name": "",
          "type": "uint256"
        }
      ],
      "stateMutability": "view",
      "type": "function"
    },
    {
      "inputs": [],
      "name": "nft9022",
      "outputs": [
        {
          "internalType": "contract I9022",
          "name": "",
          "type": "address"
        }
      ],
      "stateMutability": "view",
      "type": "function"
    },
    {
      "inputs": [],
      "name": "nftThreshold",
      "outputs": [
        {
          "internalType": "uint256",
          "name": "",
          "type": "uint256"
        }
      ],
      "stateMutability": "view",
      "type": "function"
    },
    {
      "inputs": [],
      "name": "owner",
      "outputs": [
        {
          "internalType": "address",
          "name": "",
          "type": "address"
        }
      ],
      "stateMutability": "view",
      "type": "function"
    },
    {
      "inputs": [
        {
          "internalType": "uint256",
          "name": "_amount",
          "type": "uint256"
        }
      ],
      "name": "pool1",
      "outputs": [],
      "stateMutability": "payable",
      "type": "function"
    },
    {
      "inputs": [],
      "name": "poolType",
      "outputs": [
        {
          "internalType": "string",
          "name": "",
          "type": "string"
        }
      ],
      "stateMutability": "view",
      "type": "function"
    },
    {
      "inputs": [
        {
          "internalType": "address",
          "name": "_staker",
          "type": "address"
        },
        {
          "internalType": "uint256",
          "name": "_index",
          "type": "uint256"
        }
      ],
      "name": "poolerDetails",
      "outputs": [
        {
          "components": [
            {
              "internalType": "uint256",
              "name": "amount",
              "type": "uint256"
            },
            {
              "internalType": "uint256",
              "name": "apr",
              "type": "uint256"
            },
            {
              "internalType": "uint256",
              "name": "timestamp",
              "type": "uint256"
            },
            {
              "internalType": "string",
              "name": "poolType",
              "type": "string"
            }
          ],
          "internalType": "struct IPool.Pool",
          "name": "",
          "type": "tuple"
        }
      ],
      "stateMutability": "view",
      "type": "function"
    },
    {
      "inputs": [
        {
          "internalType": "address",
          "name": "_staker",
          "type": "address"
        }
      ],
      "name": "poolingBalance",
      "outputs": [
        {
          "internalType": "uint256",
          "name": "",
          "type": "uint256"
        }
      ],
      "stateMutability": "view",
      "type": "function"
    },
    {
      "inputs": [],
      "name": "renounceOwnership",
      "outputs": [],
      "stateMutability": "nonpayable",
      "type": "function"
    },
    {
      "inputs": [
        {
          "internalType": "uint256",
          "name": "_arp",
          "type": "uint256"
        }
      ],
      "name": "setARP",
      "outputs": [],
      "stateMutability": "nonpayable",
      "type": "function"
    },
    {
      "inputs": [
        {
          "internalType": "address",
          "name": "_tokenAddress",
          "type": "address"
        }
      ],
      "name": "setIAIToken",
      "outputs": [],
      "stateMutability": "nonpayable",
      "type": "function"
    },
    {
      "inputs": [
        {
          "internalType": "uint256",
          "name": "_minstakingPeriod",
          "type": "uint256"
        }
      ],
      "name": "setMinPoolingPeriod",
      "outputs": [],
      "stateMutability": "nonpayable",
      "type": "function"
    },
    {
      "inputs": [
        {
          "internalType": "uint256",
          "name": "_amount",
          "type": "uint256"
        }
      ],
      "name": "setNftThreshold",
      "outputs": [],
      "stateMutability": "nonpayable",
      "type": "function"
    },
    {
      "inputs": [
        {
          "internalType": "address",
          "name": "_tokenAddress",
          "type": "address"
        }
      ],
      "name": "setNftToken",
      "outputs": [],
      "stateMutability": "nonpayable",
      "type": "function"
    },
    {
      "inputs": [
        {
          "internalType": "uint256",
          "name": "_amount",
          "type": "uint256"
        }
      ],
      "name": "setTokenThreshold",
      "outputs": [],
      "stateMutability": "nonpayable",
      "type": "function"
    },
    {
      "inputs": [
        {
          "internalType": "uint256",
          "name": "_withdrawPenalty",
          "type": "uint256"
        }
      ],
      "name": "setWithdrawPenalty",
      "outputs": [],
      "stateMutability": "nonpayable",
      "type": "function"
    },
    {
      "inputs": [],
      "name": "tokenThreshold",
      "outputs": [
        {
          "internalType": "uint256",
          "name": "",
          "type": "uint256"
        }
      ],
      "stateMutability": "view",
      "type": "function"
    },
    {
      "inputs": [
        {
          "internalType": "address",
          "name": "newOwner",
          "type": "address"
        }
      ],
      "name": "transferOwnership",
      "outputs": [],
      "stateMutability": "nonpayable",
      "type": "function"
    },
    {
      "inputs": [
        {
          "internalType": "uint256",
          "name": "_index",
          "type": "uint256"
        }
      ],
      "name": "unpool1",
      "outputs": [],
      "stateMutability": "nonpayable",
      "type": "function"
    },
    {
      "inputs": [
        {
          "internalType": "address",
          "name": "_address",
          "type": "address"
        },
        {
          "internalType": "uint256",
          "name": "_amount",
          "type": "uint256"
        }
      ],
      "name": "widthdrawIAI",
      "outputs": [],
      "stateMutability": "nonpayable",
      "type": "function"
    },
    {
      "inputs": [
        {
          "internalType": "address",
          "name": "_address",
          "type": "address"
        }
      ],
      "name": "withdraw",
      "outputs": [],
      "stateMutability": "nonpayable",
      "type": "function"
    },
    {
      "inputs": [],
      "name": "withdrawPenalty",
      "outputs": [
        {
          "internalType": "uint256",
          "name": "",
          "type": "uint256"
        }
      ],
      "stateMutability": "view",
      "type": "function"
    },
    {
      "inputs": [
        {
          "internalType": "uint256",
          "name": "_index",
          "type": "uint256"
        }
      ],
      "name": "withdrawPool1",
      "outputs": [],
      "stateMutability": "nonpayable",
      "type": "function"
    },
    {
      "stateMutability": "payable",
      "type": "receive"
    }
  ],
  "bytecode": "0x60806040523480156200001157600080fd5b506040516200414038038062004140833981810160405281019062000037919062000297565b8181600160008190555062000061620000556200015f60201b60201c565b6200016760201b60201c565b81600260006101000a81548173ffffffffffffffffffffffffffffffffffffffff021916908373ffffffffffffffffffffffffffffffffffffffff16021790555080600360006101000a81548173ffffffffffffffffffffffffffffffffffffffff021916908373ffffffffffffffffffffffffffffffffffffffff16021790555050506040518060400160405280600681526020017f506f6f6c20310000000000000000000000000000000000000000000000000000815250600490816200012b919062000558565b5060c86005819055506019600681905550600160078190555061271060088190555062eff10060098190555050506200063f565b600033905090565b6000600160009054906101000a900473ffffffffffffffffffffffffffffffffffffffff16905081600160006101000a81548173ffffffffffffffffffffffffffffffffffffffff021916908373ffffffffffffffffffffffffffffffffffffffff1602179055508173ffffffffffffffffffffffffffffffffffffffff168173ffffffffffffffffffffffffffffffffffffffff167f8be0079c531659141344cd1fd0a4f28419497f9722a3daafe3b4186f6b6457e060405160405180910390a35050565b600080fd5b600073ffffffffffffffffffffffffffffffffffffffff82169050919050565b60006200025f8262000232565b9050919050565b620002718162000252565b81146200027d57600080fd5b50565b600081519050620002918162000266565b92915050565b60008060408385031215620002b157620002b06200022d565b5b6000620002c18582860162000280565b9250506020620002d48582860162000280565b9150509250929050565b600081519050919050565b7f4e487b7100000000000000000000000000000000000000000000000000000000600052604160045260246000fd5b7f4e487b7100000000000000000000000000000000000000000000000000000000600052602260045260246000fd5b600060028204905060018216806200036057607f821691505b60208210810362000376576200037562000318565b5b50919050565b60008190508160005260206000209050919050565b60006020601f8301049050919050565b600082821b905092915050565b600060088302620003e07fffffffffffffffffffffffffffffffffffffffffffffffffffffffffffffffff82620003a1565b620003ec8683620003a1565b95508019841693508086168417925050509392505050565b6000819050919050565b6000819050919050565b600062000439620004336200042d8462000404565b6200040e565b62000404565b9050919050565b6000819050919050565b620004558362000418565b6200046d620004648262000440565b848454620003ae565b825550505050565b600090565b6200048462000475565b620004918184846200044a565b505050565b5b81811015620004b957620004ad6000826200047a565b60018101905062000497565b5050565b601f8211156200050857620004d2816200037c565b620004dd8462000391565b81016020851015620004ed578190505b62000505620004fc8562000391565b83018262000496565b50505b505050565b600082821c905092915050565b60006200052d600019846008026200050d565b1980831691505092915050565b60006200054883836200051a565b9150826002028217905092915050565b6200056382620002de565b67ffffffffffffffff8111156200057f576200057e620002e9565b5b6200058b825462000347565b62000598828285620004bd565b600060209050601f831160018114620005d05760008415620005bb578287015190505b620005c785826200053a565b86555062000637565b601f198416620005e0866200037c565b60005b828110156200060a57848901518255600182019150602085019450602081019050620005e3565b868310156200062a578489015162000626601f8916826200051a565b8355505b6001600288020188555050505b505050505050565b613af1806200064f6000396000f3fe6080604052600436106101c65760003560e01c8063b0e6bc00116100f7578063d494e9d111610095578063f2fde38b11610064578063f2fde38b1461064a578063f92df90b14610673578063fbf3e49b1461068f578063fd6e3d69146106cc57610206565b8063d494e9d1146105b8578063dc4a81af146105cf578063dcb40c9f146105f8578063de15af2e1461062157610206565b8063c5a34316116100d1578063c5a34316146104fe578063c6398bf514610527578063c760167714610564578063d207e2441461058f57610206565b8063b0e6bc001461047f578063b1dd61b6146104aa578063b2189330146104d557610206565b806366692ff01161016457806387bde5491161013e57806387bde549146103d75780638b8959af146104005780638da5cb5b14610429578063a9f74b241461045457610206565b806366692ff0146103585780636d545f4514610383578063715018a6146103c057610206565b8063519dc8d2116101a0578063519dc8d21461029e57806351cff8d9146102db57806356d2b1d11461030457806357ded9c91461032d57610206565b80631a1ce2fc1461020b5780632b3f6f66146102365780633f69da751461026157610206565b36610206577f88a5966d370b9919b20f3e2c13ff65706f196a4e32cc2c12bf57088f8852587433346040516101fc92919061275a565b60405180910390a1005b600080fd5b34801561021757600080fd5b506102206106f5565b60405161022d9190612783565b60405180910390f35b34801561024257600080fd5b5061024b6106fb565b60405161025891906127fd565b60405180910390f35b34801561026d57600080fd5b5061028860048036038101906102839190612849565b610721565b6040516102959190612a3a565b60405180910390f35b3480156102aa57600080fd5b506102c560048036038101906102c09190612849565b61086f565b6040516102d29190612b0b565b60405180910390f35b3480156102e757600080fd5b5061030260048036038101906102fd9190612849565b610a44565b005b34801561031057600080fd5b5061032b60048036038101906103269190612849565b610adf565b005b34801561033957600080fd5b50610342610b2b565b60405161034f9190612783565b60405180910390f35b34801561036457600080fd5b5061036d610b31565b60405161037a9190612783565b60405180910390f35b34801561038f57600080fd5b506103aa60048036038101906103a59190612b59565b610b37565b6040516103b79190612bfc565b60405180910390f35b3480156103cc57600080fd5b506103d5610c61565b005b3480156103e357600080fd5b506103fe60048036038101906103f99190612c1e565b610c75565b005b34801561040c57600080fd5b5061042760048036038101906104229190612c1e565b610cca565b005b34801561043557600080fd5b5061043e610d1f565b60405161044b9190612c4b565b60405180910390f35b34801561046057600080fd5b50610469610d49565b6040516104769190612783565b60405180910390f35b34801561048b57600080fd5b50610494610d4f565b6040516104a19190612783565b60405180910390f35b3480156104b657600080fd5b506104bf610d55565b6040516104cc9190612cb0565b60405180910390f35b3480156104e157600080fd5b506104fc60048036038101906104f79190612c1e565b610de3565b005b34801561050a57600080fd5b5061052560048036038101906105209190612c1e565b610e38565b005b34801561053357600080fd5b5061054e60048036038101906105499190612849565b6114a6565b60405161055b9190612783565b60405180910390f35b34801561057057600080fd5b506105796114ef565b6040516105869190612cf3565b60405180910390f35b34801561059b57600080fd5b506105b660048036038101906105b19190612849565b611515565b005b3480156105c457600080fd5b506105cd611561565b005b3480156105db57600080fd5b506105f660048036038101906105f19190612b59565b611891565b005b34801561060457600080fd5b5061061f600480360381019061061a9190612c1e565b61193e565b005b34801561062d57600080fd5b5061064860048036038101906106439190612c1e565b611993565b005b34801561065657600080fd5b50610671600480360381019061066c9190612849565b6119e8565b005b61068d60048036038101906106889190612c1e565b611a6b565b005b34801561069b57600080fd5b506106b660048036038101906106b19190612849565b611e22565b6040516106c39190612783565b60405180910390f35b3480156106d857600080fd5b506106f360048036038101906106ee9190612c1e565b611e6b565b005b60065481565b600260009054906101000a900473ffffffffffffffffffffffffffffffffffffffff1681565b6060600a60008373ffffffffffffffffffffffffffffffffffffffff1673ffffffffffffffffffffffffffffffffffffffff168152602001908152602001600020805480602002602001604051908101604052809291908181526020016000905b8282101561086457838290600052602060002090600402016040518060800160405290816000820154815260200160018201548152602001600282015481526020016003820180546107d390612d3d565b80601f01602080910402602001604051908101604052809291908181526020018280546107ff90612d3d565b801561084c5780601f106108215761010080835404028352916020019161084c565b820191906000526020600020905b81548152906001019060200180831161082f57829003601f168201915b50505050508152505081526020019060010190610782565b505050509050919050565b60606000600360009054906101000a900473ffffffffffffffffffffffffffffffffffffffff1673ffffffffffffffffffffffffffffffffffffffff166370a08231846040518263ffffffff1660e01b81526004016108ce9190612c4b565b602060405180830381865afa1580156108eb573d6000803e3d6000fd5b505050506040513d601f19601f8201168201806040525081019061090f9190612d83565b905060008167ffffffffffffffff81111561092d5761092c612db0565b5b60405190808252806020026020018201604052801561095b5781602001602082028036833780820191505090505b50905060005b82811015610a3957600360009054906101000a900473ffffffffffffffffffffffffffffffffffffffff1673ffffffffffffffffffffffffffffffffffffffff16632f745c5986836040518363ffffffff1660e01b81526004016109c692919061275a565b602060405180830381865afa1580156109e3573d6000803e3d6000fd5b505050506040513d601f19601f82011682018060405250810190610a079190612d83565b828281518110610a1a57610a19612ddf565b5b6020026020010181815250508080610a3190612e3d565b915050610961565b508092505050919050565b610a4c6124d6565b600047905060008111610a94576040517f08c379a0000000000000000000000000000000000000000000000000000000008152600401610a8b90612ed1565b60405180910390fd5b8173ffffffffffffffffffffffffffffffffffffffff166108fc829081150290604051600060405180830381858888f19350505050158015610ada573d6000803e3d6000fd5b505050565b610ae76124d6565b80600260006101000a81548173ffffffffffffffffffffffffffffffffffffffff021916908373ffffffffffffffffffffffffffffffffffffffff16021790555050565b60055481565b60085481565b610b3f61267b565b600a60008473ffffffffffffffffffffffffffffffffffffffff1673ffffffffffffffffffffffffffffffffffffffff1681526020019081526020016000208281548110610b9057610b8f612ddf565b5b9060005260206000209060040201604051806080016040529081600082015481526020016001820154815260200160028201548152602001600382018054610bd790612d3d565b80601f0160208091040260200160405190810160405280929190818152602001828054610c0390612d3d565b8015610c505780601f10610c2557610100808354040283529160200191610c50565b820191906000526020600020905b815481529060010190602001808311610c3357829003601f168201915b505050505081525050905092915050565b610c696124d6565b610c736000612554565b565b610c7d6124d6565b60008111610cc0576040517f08c379a0000000000000000000000000000000000000000000000000000000008152600401610cb790612f3d565b60405180910390fd5b8060088190555050565b610cd26124d6565b60008111610d15576040517f08c379a0000000000000000000000000000000000000000000000000000000008152600401610d0c90612f3d565b60405180910390fd5b8060078190555050565b6000600160009054906101000a900473ffffffffffffffffffffffffffffffffffffffff16905090565b60095481565b60075481565b60048054610d6290612d3d565b80601f0160208091040260200160405190810160405280929190818152602001828054610d8e90612d3d565b8015610ddb5780601f10610db057610100808354040283529160200191610ddb565b820191906000526020600020905b815481529060010190602001808311610dbe57829003601f168201915b505050505081565b610deb6124d6565b60008111610e2e576040517f08c379a0000000000000000000000000000000000000000000000000000000008152600401610e2590612fa9565b60405180910390fd5b8060068190555050565b610e4061261a565b6000600a60003373ffffffffffffffffffffffffffffffffffffffff1673ffffffffffffffffffffffffffffffffffffffff1681526020019081526020016000208054905011610ec5576040517f08c379a0000000000000000000000000000000000000000000000000000000008152600401610ebc90613015565b60405180910390fd5b600181610ed29190613035565b600a60003373ffffffffffffffffffffffffffffffffffffffff1673ffffffffffffffffffffffffffffffffffffffff168152602001908152602001600020805490501015610f56576040517f08c379a0000000000000000000000000000000000000000000000000000000008152600401610f4d906130b5565b60405180910390fd5b60008190506000600a60003373ffffffffffffffffffffffffffffffffffffffff1673ffffffffffffffffffffffffffffffffffffffff1681526020019081526020016000208281548110610fae57610fad612ddf565b5b9060005260206000209060040201604051806080016040529081600082015481526020016001820154815260200160028201548152602001600382018054610ff590612d3d565b80601f016020809104026020016040519081016040528092919081815260200182805461102190612d3d565b801561106e5780601f106110435761010080835404028352916020019161106e565b820191906000526020600020905b81548152906001019060200180831161105157829003601f168201915b5050505050815250509050600081604001514261108b91906130d5565b90506009548110156110d2576040517f08c379a00000000000000000000000000000000000000000000000000000000081526004016110c99061317b565b60405180910390fd5b6000826000015190506000612710600554836110ee919061319b565b6110f8919061320c565b9050600081836111089190613035565b905060008790505b6001600a60003373ffffffffffffffffffffffffffffffffffffffff1673ffffffffffffffffffffffffffffffffffffffff1681526020019081526020016000208054905061115f91906130d5565b81101561127957600a60003373ffffffffffffffffffffffffffffffffffffffff1673ffffffffffffffffffffffffffffffffffffffff1681526020019081526020016000206001826111b29190613035565b815481106111c3576111c2612ddf565b5b9060005260206000209060040201600a60003373ffffffffffffffffffffffffffffffffffffffff1673ffffffffffffffffffffffffffffffffffffffff168152602001908152602001600020828154811061122257611221612ddf565b5b90600052602060002090600402016000820154816000015560018201548160010155600282015481600201556003820181600301908161126291906133f5565b50905050808061127190612e3d565b915050611110565b50600a60003373ffffffffffffffffffffffffffffffffffffffff1673ffffffffffffffffffffffffffffffffffffffff1681526020019081526020016000208054806112c9576112c86134dd565b5b60019003818190600052602060002090600402016000808201600090556001820160009055600282016000905560038201600061130691906126a3565b5050905582600b60003373ffffffffffffffffffffffffffffffffffffffff1673ffffffffffffffffffffffffffffffffffffffff168152602001908152602001600020600082825461135991906130d5565b9250508190555042600c60003373ffffffffffffffffffffffffffffffffffffffff1673ffffffffffffffffffffffffffffffffffffffff16815260200190815260200160002081905550600260009054906101000a900473ffffffffffffffffffffffffffffffffffffffff1673ffffffffffffffffffffffffffffffffffffffff1663a9059cbb33836040518363ffffffff1660e01b815260040161140192919061275a565b6020604051808303816000875af1158015611420573d6000803e3d6000fd5b505050506040513d601f19601f820116820180604052508101906114449190613544565b503373ffffffffffffffffffffffffffffffffffffffff167fc2b6ce907a80e663575d7e56ca2f7fb6f9089365ca93e155c85d64dce06102bc828660405161148d929190613571565b60405180910390a25050505050506114a3612669565b50565b6000600b60008373ffffffffffffffffffffffffffffffffffffffff1673ffffffffffffffffffffffffffffffffffffffff168152602001908152602001600020549050919050565b600360009054906101000a900473ffffffffffffffffffffffffffffffffffffffff1681565b61151d6124d6565b80600360006101000a81548173ffffffffffffffffffffffffffffffffffffffff021916908373ffffffffffffffffffffffffffffffffffffffff16021790555050565b61156961261a565b6000600a60003373ffffffffffffffffffffffffffffffffffffffff1673ffffffffffffffffffffffffffffffffffffffff16815260200190815260200160002080549050116115ee576040517f08c379a00000000000000000000000000000000000000000000000000000000081526004016115e590613015565b60405180910390fd5b6000600b60003373ffffffffffffffffffffffffffffffffffffffff1673ffffffffffffffffffffffffffffffffffffffff1681526020019081526020016000205490506000600c60003373ffffffffffffffffffffffffffffffffffffffff1673ffffffffffffffffffffffffffffffffffffffff1681526020019081526020016000205490506000814261168491906130d5565b9050600081116116c9576040517f08c379a00000000000000000000000000000000000000000000000000000000081526004016116c0906135e6565b60405180910390fd5b6000606462015180836116dc919061320c565b61016d6005546116ec919061320c565b866116f7919061319b565b611701919061319b565b61170b919061320c565b905060008111611750576040517f08c379a000000000000000000000000000000000000000000000000000000000815260040161174790613652565b60405180910390fd5b42600c60003373ffffffffffffffffffffffffffffffffffffffff1673ffffffffffffffffffffffffffffffffffffffff16815260200190815260200160002081905550600260009054906101000a900473ffffffffffffffffffffffffffffffffffffffff1673ffffffffffffffffffffffffffffffffffffffff1663a9059cbb33836040518363ffffffff1660e01b81526004016117f192919061275a565b6020604051808303816000875af1158015611810573d6000803e3d6000fd5b505050506040513d601f19601f820116820180604052508101906118349190613544565b503373ffffffffffffffffffffffffffffffffffffffff167f106f923f993c2149d49b4255ff723acafa1f2d94393f561d3eda32ae348f72418260405161187b9190612783565b60405180910390a25050505061188f612669565b565b6118996124d6565b600260009054906101000a900473ffffffffffffffffffffffffffffffffffffffff1673ffffffffffffffffffffffffffffffffffffffff1663a9059cbb83836040518363ffffffff1660e01b81526004016118f692919061275a565b6020604051808303816000875af1158015611915573d6000803e3d6000fd5b505050506040513d601f19601f820116820180604052508101906119399190613544565b505050565b6119466124d6565b60008111611989576040517f08c379a0000000000000000000000000000000000000000000000000000000008152600401611980906136be565b60405180910390fd5b8060058190555050565b61199b6124d6565b600081116119de576040517f08c379a00000000000000000000000000000000000000000000000000000000081526004016119d590612fa9565b60405180910390fd5b8060098190555050565b6119f06124d6565b600073ffffffffffffffffffffffffffffffffffffffff168173ffffffffffffffffffffffffffffffffffffffff1603611a5f576040517f08c379a0000000000000000000000000000000000000000000000000000000008152600401611a5690613750565b60405180910390fd5b611a6881612554565b50565b6001811015611aaf576040517f08c379a0000000000000000000000000000000000000000000000000000000008152600401611aa6906137bc565b60405180910390fd5b80600260009054906101000a900473ffffffffffffffffffffffffffffffffffffffff1673ffffffffffffffffffffffffffffffffffffffff166370a08231336040518263ffffffff1660e01b8152600401611b0b9190612c4b565b602060405180830381865afa158015611b28573d6000803e3d6000fd5b505050506040513d601f19601f82011682018060405250810190611b4c9190612d83565b1015611b8d576040517f08c379a0000000000000000000000000000000000000000000000000000000008152600401611b8490613828565b60405180910390fd5b600260009054906101000a900473ffffffffffffffffffffffffffffffffffffffff1673ffffffffffffffffffffffffffffffffffffffff166323b872dd3330846040518463ffffffff1660e01b8152600401611bec93929190613848565b6020604051808303816000875af1158015611c0b573d6000803e3d6000fd5b505050506040513d601f19601f82011682018060405250810190611c2f9190613544565b5080600b60003373ffffffffffffffffffffffffffffffffffffffff1673ffffffffffffffffffffffffffffffffffffffff1681526020019081526020016000206000828254611c7f9190613035565b92505081905550600a60003373ffffffffffffffffffffffffffffffffffffffff1673ffffffffffffffffffffffffffffffffffffffff1681526020019081526020016000206040518060800160405280838152602001600554815260200142815260200160048054611cf190612d3d565b80601f0160208091040260200160405190810160405280929190818152602001828054611d1d90612d3d565b8015611d6a5780601f10611d3f57610100808354040283529160200191611d6a565b820191906000526020600020905b815481529060010190602001808311611d4d57829003601f168201915b505050505081525090806001815401808255809150506001900390600052602060002090600402016000909190919091506000820151816000015560208201518160010155604082015181600201556060820151816003019081611dce919061387f565b5050503373ffffffffffffffffffffffffffffffffffffffff167f423eb3fc7f00914fa251f391851045c36a87052e7afb63e89ad6991b56a6c61782604051611e179190612783565b60405180910390a250565b6000600c60008373ffffffffffffffffffffffffffffffffffffffff1673ffffffffffffffffffffffffffffffffffffffff168152602001908152602001600020549050919050565b611e7361261a565b6000600a60003373ffffffffffffffffffffffffffffffffffffffff1673ffffffffffffffffffffffffffffffffffffffff1681526020019081526020016000208054905011611ef8576040517f08c379a0000000000000000000000000000000000000000000000000000000008152600401611eef90613015565b60405180910390fd5b600181611f059190613035565b600a60003373ffffffffffffffffffffffffffffffffffffffff1673ffffffffffffffffffffffffffffffffffffffff168152602001908152602001600020805490501015611f89576040517f08c379a0000000000000000000000000000000000000000000000000000000008152600401611f80906130b5565b60405180910390fd5b60008190506000600a60003373ffffffffffffffffffffffffffffffffffffffff1673ffffffffffffffffffffffffffffffffffffffff1681526020019081526020016000208281548110611fe157611fe0612ddf565b5b906000526020600020906004020160405180608001604052908160008201548152602001600182015481526020016002820154815260200160038201805461202890612d3d565b80601f016020809104026020016040519081016040528092919081815260200182805461205490612d3d565b80156120a15780601f10612076576101008083540402835291602001916120a1565b820191906000526020600020905b81548152906001019060200180831161208457829003601f168201915b505050505081525050905060008160400151426120be91906130d5565b905060008260000151905060095482111561210e576040517f08c379a0000000000000000000000000000000000000000000000000000000008152600401612105906139c3565b60405180910390fd5b6000606460065483612120919061319b565b61212a919061320c565b905060008690505b6001600a60003373ffffffffffffffffffffffffffffffffffffffff1673ffffffffffffffffffffffffffffffffffffffff1681526020019081526020016000208054905061218191906130d5565b81101561229b57600a60003373ffffffffffffffffffffffffffffffffffffffff1673ffffffffffffffffffffffffffffffffffffffff1681526020019081526020016000206001826121d49190613035565b815481106121e5576121e4612ddf565b5b9060005260206000209060040201600a60003373ffffffffffffffffffffffffffffffffffffffff1673ffffffffffffffffffffffffffffffffffffffff168152602001908152602001600020828154811061224457612243612ddf565b5b90600052602060002090600402016000820154816000015560018201548160010155600282015481600201556003820181600301908161228491906133f5565b50905050808061229390612e3d565b915050612132565b50600a60003373ffffffffffffffffffffffffffffffffffffffff1673ffffffffffffffffffffffffffffffffffffffff1681526020019081526020016000208054806122eb576122ea6134dd565b5b60019003818190600052602060002090600402016000808201600090556001820160009055600282016000905560038201600061232891906126a3565b5050905581600b60003373ffffffffffffffffffffffffffffffffffffffff1673ffffffffffffffffffffffffffffffffffffffff168152602001908152602001600020600082825461237b91906130d5565b9250508190555042600c60003373ffffffffffffffffffffffffffffffffffffffff1673ffffffffffffffffffffffffffffffffffffffff16815260200190815260200160002081905550600081836123d491906130d5565b9050600260009054906101000a900473ffffffffffffffffffffffffffffffffffffffff1673ffffffffffffffffffffffffffffffffffffffff1663a9059cbb33836040518363ffffffff1660e01b815260040161243392919061275a565b6020604051808303816000875af1158015612452573d6000803e3d6000fd5b505050506040513d601f19601f820116820180604052508101906124769190613544565b503373ffffffffffffffffffffffffffffffffffffffff167f322e5021ddf51920f7602154a6c845b34ef1b32704a1fa2c66927b56be280762826040516124bd9190612783565b60405180910390a25050505050506124d3612669565b50565b6124de612673565b73ffffffffffffffffffffffffffffffffffffffff166124fc610d1f565b73ffffffffffffffffffffffffffffffffffffffff1614612552576040517f08c379a000000000000000000000000000000000000000000000000000000000815260040161254990613a2f565b60405180910390fd5b565b6000600160009054906101000a900473ffffffffffffffffffffffffffffffffffffffff16905081600160006101000a81548173ffffffffffffffffffffffffffffffffffffffff021916908373ffffffffffffffffffffffffffffffffffffffff1602179055508173ffffffffffffffffffffffffffffffffffffffff168173ffffffffffffffffffffffffffffffffffffffff167f8be0079c531659141344cd1fd0a4f28419497f9722a3daafe3b4186f6b6457e060405160405180910390a35050565b60026000540361265f576040517f08c379a000000000000000000000000000000000000000000000000000000000815260040161265690613a9b565b60405180910390fd5b6002600081905550565b6001600081905550565b600033905090565b6040518060800160405280600081526020016000815260200160008152602001606081525090565b5080546126af90612d3d565b6000825580601f106126c157506126e0565b601f0160209004906000526020600020908101906126df91906126e3565b5b50565b5b808211156126fc5760008160009055506001016126e4565b5090565b600073ffffffffffffffffffffffffffffffffffffffff82169050919050565b600061272b82612700565b9050919050565b61273b81612720565b82525050565b6000819050919050565b61275481612741565b82525050565b600060408201905061276f6000830185612732565b61277c602083018461274b565b9392505050565b6000602082019050612798600083018461274b565b92915050565b6000819050919050565b60006127c36127be6127b984612700565b61279e565b612700565b9050919050565b60006127d5826127a8565b9050919050565b60006127e7826127ca565b9050919050565b6127f7816127dc565b82525050565b600060208201905061281260008301846127ee565b92915050565b600080fd5b61282681612720565b811461283157600080fd5b50565b6000813590506128438161281d565b92915050565b60006020828403121561285f5761285e612818565b5b600061286d84828501612834565b91505092915050565b600081519050919050565b600082825260208201905092915050565b6000819050602082019050919050565b6128ab81612741565b82525050565b600081519050919050565b600082825260208201905092915050565b60005b838110156128eb5780820151818401526020810190506128d0565b60008484015250505050565b6000601f19601f8301169050919050565b6000612913826128b1565b61291d81856128bc565b935061292d8185602086016128cd565b612936816128f7565b840191505092915050565b600060808301600083015161295960008601826128a2565b50602083015161296c60208601826128a2565b50604083015161297f60408601826128a2565b50606083015184820360608601526129978282612908565b9150508091505092915050565b60006129b08383612941565b905092915050565b6000602082019050919050565b60006129d082612876565b6129da8185612881565b9350836020820285016129ec85612892565b8060005b85811015612a285784840389528151612a0985826129a4565b9450612a14836129b8565b925060208a019950506001810190506129f0565b50829750879550505050505092915050565b60006020820190508181036000830152612a5481846129c5565b905092915050565b600081519050919050565b600082825260208201905092915050565b6000819050602082019050919050565b6000612a9483836128a2565b60208301905092915050565b6000602082019050919050565b6000612ab882612a5c565b612ac28185612a67565b9350612acd83612a78565b8060005b83811015612afe578151612ae58882612a88565b9750612af083612aa0565b925050600181019050612ad1565b5085935050505092915050565b60006020820190508181036000830152612b258184612aad565b905092915050565b612b3681612741565b8114612b4157600080fd5b50565b600081359050612b5381612b2d565b92915050565b60008060408385031215612b7057612b6f612818565b5b6000612b7e85828601612834565b9250506020612b8f85828601612b44565b9150509250929050565b6000608083016000830151612bb160008601826128a2565b506020830151612bc460208601826128a2565b506040830151612bd760408601826128a2565b5060608301518482036060860152612bef8282612908565b9150508091505092915050565b60006020820190508181036000830152612c168184612b99565b905092915050565b600060208284031215612c3457612c33612818565b5b6000612c4284828501612b44565b91505092915050565b6000602082019050612c606000830184612732565b92915050565b600082825260208201905092915050565b6000612c82826128b1565b612c8c8185612c66565b9350612c9c8185602086016128cd565b612ca5816128f7565b840191505092915050565b60006020820190508181036000830152612cca8184612c77565b905092915050565b6000612cdd826127ca565b9050919050565b612ced81612cd2565b82525050565b6000602082019050612d086000830184612ce4565b92915050565b7f4e487b7100000000000000000000000000000000000000000000000000000000600052602260045260246000fd5b60006002820490506001821680612d5557607f821691505b602082108103612d6857612d67612d0e565b5b50919050565b600081519050612d7d81612b2d565b92915050565b600060208284031215612d9957612d98612818565b5b6000612da784828501612d6e565b91505092915050565b7f4e487b7100000000000000000000000000000000000000000000000000000000600052604160045260246000fd5b7f4e487b7100000000000000000000000000000000000000000000000000000000600052603260045260246000fd5b7f4e487b7100000000000000000000000000000000000000000000000000000000600052601160045260246000fd5b6000612e4882612741565b91507fffffffffffffffffffffffffffffffffffffffffffffffffffffffffffffffff8203612e7a57612e79612e0e565b5b600182019050919050565b7f416d6f756e7420697320746f6f20686967680000000000000000000000000000600082015250565b6000612ebb601283612c66565b9150612ec682612e85565b602082019050919050565b60006020820190508181036000830152612eea81612eae565b9050919050565b7f416d6f756e742063616e206e6f74206265203000000000000000000000000000600082015250565b6000612f27601383612c66565b9150612f3282612ef1565b602082019050919050565b60006020820190508181036000830152612f5681612f1a565b9050919050565b7f416d6f756e742063616e6e2774206265207a65726f0000000000000000000000600082015250565b6000612f93601583612c66565b9150612f9e82612f5d565b602082019050919050565b60006020820190508181036000830152612fc281612f86565b9050919050565b7f4e6f207374616b657320666f756e6420666f7220746865206164647265737300600082015250565b6000612fff601f83612c66565b915061300a82612fc9565b602082019050919050565b6000602082019050818103600083015261302e81612ff2565b9050919050565b600061304082612741565b915061304b83612741565b925082820190508082111561306357613062612e0e565b5b92915050565b7f5374616b6520646f6573206e6f74206578697374000000000000000000000000600082015250565b600061309f601483612c66565b91506130aa82613069565b602082019050919050565b600060208201905081810360008301526130ce81613092565b9050919050565b60006130e082612741565b91506130eb83612741565b925082820390508181111561310357613102612e0e565b5b92915050565b7f4d696e696d756d20706f6f6c696e6720706572696f64206e6f7420726561636860008201527f6564000000000000000000000000000000000000000000000000000000000000602082015250565b6000613165602283612c66565b915061317082613109565b604082019050919050565b6000602082019050818103600083015261319481613158565b9050919050565b60006131a682612741565b91506131b183612741565b92508282026131bf81612741565b915082820484148315176131d6576131d5612e0e565b5b5092915050565b7f4e487b7100000000000000000000000000000000000000000000000000000000600052601260045260246000fd5b600061321782612741565b915061322283612741565b925082613232576132316131dd565b5b828204905092915050565b60008154905061324c81612d3d565b9050919050565b60008190508160005260206000209050919050565b60006020601f8301049050919050565b600082821b905092915050565b6000600883026132b57fffffffffffffffffffffffffffffffffffffffffffffffffffffffffffffffff82613278565b6132bf8683613278565b95508019841693508086168417925050509392505050565b60006132f26132ed6132e884612741565b61279e565b612741565b9050919050565b6000819050919050565b61330c836132d7565b613320613318826132f9565b848454613285565b825550505050565b600090565b613335613328565b613340818484613303565b505050565b5b818110156133645761335960008261332d565b600181019050613346565b5050565b601f8211156133a95761337a81613253565b61338384613268565b81016020851015613392578190505b6133a661339e85613268565b830182613345565b50505b505050565b600082821c905092915050565b60006133cc600019846008026133ae565b1980831691505092915050565b60006133e583836133bb565b9150826002028217905092915050565b8181036134035750506134db565b61340c8261323d565b67ffffffffffffffff81111561342557613424612db0565b5b61342f8254612d3d565b61343a828285613368565b6000601f8311600181146134695760008415613457578287015490505b61346185826133d9565b8655506134d4565b601f19841661347787613253565b965061348286613253565b60005b828110156134aa57848901548255600182019150600185019450602081019050613485565b868310156134c757848901546134c3601f8916826133bb565b8355505b6001600288020188555050505b5050505050505b565b7f4e487b7100000000000000000000000000000000000000000000000000000000600052603160045260246000fd5b60008115159050919050565b6135218161350c565b811461352c57600080fd5b50565b60008151905061353e81613518565b92915050565b60006020828403121561355a57613559612818565b5b60006135688482850161352f565b91505092915050565b6000604082019050613586600083018561274b565b613593602083018461274b565b9392505050565b7f4e6f207265776172647320746f20636c61696d00000000000000000000000000600082015250565b60006135d0601383612c66565b91506135db8261359a565b602082019050919050565b600060208201905081810360008301526135ff816135c3565b9050919050565b7f4e6f7420456c696769626c6520666f7220726577617264000000000000000000600082015250565b600061363c601783612c66565b915061364782613606565b602082019050919050565b6000602082019050818103600083015261366b8161362f565b9050919050565b7f416d6f756e742063616e206e6f74206265207a65726f00000000000000000000600082015250565b60006136a8601683612c66565b91506136b382613672565b602082019050919050565b600060208201905081810360008301526136d78161369b565b9050919050565b7f4f776e61626c653a206e6577206f776e657220697320746865207a65726f206160008201527f6464726573730000000000000000000000000000000000000000000000000000602082015250565b600061373a602683612c66565b9150613745826136de565b604082019050919050565b600060208201905081810360008301526137698161372d565b9050919050565b7f416d6f756e742063616e2774206265207a65726f000000000000000000000000600082015250565b60006137a6601483612c66565b91506137b182613770565b602082019050919050565b600060208201905081810360008301526137d581613799565b9050919050565b7f496e73756666696369656e7420246941492062616c616e636500000000000000600082015250565b6000613812601983612c66565b915061381d826137dc565b602082019050919050565b6000602082019050818103600083015261384181613805565b9050919050565b600060608201905061385d6000830186612732565b61386a6020830185612732565b613877604083018461274b565b949350505050565b613888826128b1565b67ffffffffffffffff8111156138a1576138a0612db0565b5b6138ab8254612d3d565b6138b6828285613368565b600060209050601f8311600181146138e957600084156138d7578287015190505b6138e185826133d9565b865550613949565b601f1984166138f786613253565b60005b8281101561391f578489015182556001820191506020850194506020810190506138fa565b8683101561393c5784890151613938601f8916826133bb565b8355505b6001600288020188555050505b505050505050565b7f576974686472617720776974682070656e616c74792074696d6520657863656560008201527f6420796f752063616e206e6f7720756e7374616b6520746f6b656e2000000000602082015250565b60006139ad603c83612c66565b91506139b882613951565b604082019050919050565b600060208201905081810360008301526139dc816139a0565b9050919050565b7f4f776e61626c653a2063616c6c6572206973206e6f7420746865206f776e6572600082015250565b6000613a19602083612c66565b9150613a24826139e3565b602082019050919050565b60006020820190508181036000830152613a4881613a0c565b9050919050565b7f5265656e7472616e637947756172643a207265656e7472616e742063616c6c00600082015250565b6000613a85601f83612c66565b9150613a9082613a4f565b602082019050919050565b60006020820190508181036000830152613ab481613a78565b905091905056fea264697066735822122059e8e0a394a07bdddd8f1f9744f689964d1b3cc5f06ee017a725fe3c1d34653a64736f6c63430008110033",
  "linkReferences": {},
  "deployedLinkReferences": {}
}